S0120000456E7472656761626C652E7372656319
S11300000C9434000C9451000C9451000C94510045
S11300100C9451000C9451000C9451000C94510018
S11300200C9451000C9451000C9451000C94510008
S11300300C9451000C9451000C9451000C945100F8
S11300400C9451000C9451000C9451000C945100E8
S11300500C9451000C9451000C9451000C945100D8
S11300600C9451000C94510011241FBECFEFD8E022
S1130070DEBFCDBF11E0A0E0B1E0E2E4F3E002C0F6
S113008005900D92A230B107D9F721E0A2E0B1E0CA
S113009001C01D92A833B207E1F70E94C0000C947E
S11300A09F010C940000E8E0F1E080E0883030F437
S11300B01182108213821282158214828F5F369607
S11300C08830A1F7089568E071E0A8E3B1E030C09A
S11300D020813181082E02C0359527950A94E2F7D4
S11300E020FF0EC0289A000000000000000000005D
S11300F000000000000028980000000000000AC072
S1130100289A000000000000289800000000000069
S1130110000000000197E0F641503296442319F0A4
S113012087E090E0D5CF6A5F7F4FA617B70719F035
S1130130FB0143E0F5CF0895FC0196B1292F21700E
S113014090FD09C080910101882329F081E090810C
S1130150911180E080832093010186B1982F9270E1
S113016081FD0BC080910001882339F081E0FB01FF
S11301702081211180E0FB01808390930001089588
S1130180CF93DF9300D0CDB7DEB78FEF8AB987B1B5
S11301908C7F87B9409A419A209A19821A82BE01AB
S11301A06E5F7F4FCE0101960E949C00E12C662475
S11301B06394D12CF12C772473940F2EF7E0CF2E77
S11301C0F02D88248394912C33243A945524539409
S11301D00F2EF7E02F2EF02DAA24AA94B12C08E0BC
S11301E011E0412C98C0898181110FC0C4010D2CEC
S11301F002C0880F991F0A94E2F78BB9D39487E061
S11302008D15ACF4E12CD12C1CC0C4010D2C02C002
S1130210880F991F0A94E2F78BB9D60C96E09D15C6
S113022044F01D146CF0E12C652CD12C0AC0E12C97
S113023008C0E12C632C0F2EF7E0DF2EF02D01C057
S1130240E12CEEE0EF1508F066C08A8181113DC013
S11302500E94530071101BC0F80111821082B382F6
S1130260A2821582148215861486B786A686118A00
S1130270108A118E108EB38EA28E158E148E15A236
S113028014A2B7A2A6A211A610A6752C1AC0F80132
S11302901782168211861086B386A286138A128A62
S11302A0158A148AB78AA68A178E168E11A210A2EE
S11302B0B3A2A2A213A612A615A614A6B7A6A6A612
S11302C0742C0E946300F12C26C00E945300FC2C65
S11302D0F7E0FC15B0F08C2D90E0FC01EE0FFF1F51
S11302E0DF01A80FB91FAA0FBB1FA85FBE4F11964D
S11302F0BC92AE9213961C921E921297FD01158227
S113030014820E946300CC24CA94CF0C1AF4F12CFA
S1130310C22C01C0F12C8FE39CE90197F1F700C0D6
S11303200000F394E394BE016E5F7F4FCE0101960B
S11303300E949C0099E09E1508F455CF82CFF89452
S1050340FFCFE9
S10503420101B3
S9030000FC
